{
  "_format": "hh-sol-artifact-1",
  "contractName": "Swap",
  "sourceName": "contracts/Swap.sol",
  "abi": [
    {
      "inputs": [
        {
          "internalType": "uint32",
          "name": "_feePercent",
          "type": "uint32"
        }
      ],
      "stateMutability": "nonpayable",
      "type": "constructor"
    },
    {
      "inputs": [
        {
          "internalType": "address",
          "name": "owner",
          "type": "address"
        }
      ],
      "name": "OwnableInvalidOwner",
      "type": "error"
    },
    {
      "inputs": [
        {
          "internalType": "address",
          "name": "account",
          "type": "address"
        }
      ],
      "name": "OwnableUnauthorizedAccount",
      "type": "error"
    },
    {
      "anonymous": false,
      "inputs": [
        {
          "indexed": true,
          "internalType": "address",
          "name": "previousOwner",
          "type": "address"
        },
        {
          "indexed": true,
          "internalType": "address",
          "name": "newOwner",
          "type": "address"
        }
      ],
      "name": "OwnershipTransferred",
      "type": "event"
    },
    {
      "anonymous": false,
      "inputs": [
        {
          "indexed": true,
          "internalType": "address",
          "name": "user",
          "type": "address"
        },
        {
          "indexed": true,
          "internalType": "address",
          "name": "tokenA",
          "type": "address"
        },
        {
          "indexed": true,
          "internalType": "address",
          "name": "tokenB",
          "type": "address"
        },
        {
          "indexed": false,
          "internalType": "uint256",
          "name": "amountIn",
          "type": "uint256"
        },
        {
          "indexed": false,
          "internalType": "uint256",
          "name": "amountOut",
          "type": "uint256"
        },
        {
          "indexed": false,
          "internalType": "uint256",
          "name": "fee",
          "type": "uint256"
        }
      ],
      "name": "TokensSwapped",
      "type": "event"
    },
    {
      "inputs": [],
      "name": "feeCollector",
      "outputs": [
        {
          "internalType": "address",
          "name": "",
          "type": "address"
        }
      ],
      "stateMutability": "view",
      "type": "function"
    },
    {
      "inputs": [],
      "name": "feePercent",
      "outputs": [
        {
          "internalType": "uint32",
          "name": "",
          "type": "uint32"
        }
      ],
      "stateMutability": "view",
      "type": "function"
    },
    {
      "inputs": [],
      "name": "owner",
      "outputs": [
        {
          "internalType": "address",
          "name": "",
          "type": "address"
        }
      ],
      "stateMutability": "view",
      "type": "function"
    },
    {
      "inputs": [],
      "name": "renounceOwnership",
      "outputs": [],
      "stateMutability": "nonpayable",
      "type": "function"
    },
    {
      "inputs": [
        {
          "internalType": "address",
          "name": "tokenB",
          "type": "address"
        }
      ],
      "name": "swapNativeForToken",
      "outputs": [],
      "stateMutability": "payable",
      "type": "function"
    },
    {
      "inputs": [
        {
          "internalType": "address",
          "name": "tokenA",
          "type": "address"
        },
        {
          "internalType": "address",
          "name": "tokenB",
          "type": "address"
        },
        {
          "internalType": "uint256",
          "name": "amountIn",
          "type": "uint256"
        }
      ],
      "name": "swapTokens",
      "outputs": [],
      "stateMutability": "nonpayable",
      "type": "function"
    },
    {
      "inputs": [
        {
          "internalType": "address",
          "name": "newOwner",
          "type": "address"
        }
      ],
      "name": "transferOwnership",
      "outputs": [],
      "stateMutability": "nonpayable",
      "type": "function"
    },
    {
      "inputs": [
        {
          "internalType": "uint32",
          "name": "newFeePercent",
          "type": "uint32"
        }
      ],
      "name": "updateFee",
      "outputs": [],
      "stateMutability": "nonpayable",
      "type": "function"
    },
    {
      "inputs": [
        {
          "internalType": "uint256",
          "name": "amount",
          "type": "uint256"
        }
      ],
      "name": "withdrawNative",
      "outputs": [],
      "stateMutability": "nonpayable",
      "type": "function"
    },
    {
      "inputs": [
        {
          "internalType": "address",
          "name": "token",
          "type": "address"
        },
        {
          "internalType": "uint256",
          "name": "amount",
          "type": "uint256"
        }
      ],
      "name": "withdrawTokens",
      "outputs": [],
      "stateMutability": "nonpayable",
      "type": "function"
    }
  ],
  "bytecode": "0x608060405234801561001057600080fd5b50604051610d76380380610d7683398101604081905261002f9161012e565b338061005657604051631e4fbdf760e01b8152600060048201526024015b60405180910390fd5b61005f816100de565b506127108163ffffffff1611156100a75760405162461bcd60e51b815260206004820152600c60248201526b08ccaca40e8dede40d0d2ced60a31b604482015260640161004d565b600180546001600160c01b0319163363ffffffff60a01b191617600160a01b63ffffffff939093169290920291909117905561015b565b600080546001600160a01b038381166001600160a01b0319831681178455604051919092169283917f8be0079c531659141344cd1fd0a4f28419497f9722a3daafe3b4186f6b6457e09190a35050565b60006020828403121561014057600080fd5b815163ffffffff8116811461015457600080fd5b9392505050565b610c0c8061016a6000396000f3fe6080604052600436106100915760003560e01c80638da5cb5b116100595780638da5cb5b1461013e578063a74cfe8214610170578063c415b95c14610190578063ec6cc0cc146101b0578063f2fde38b146101d057600080fd5b806306b091f91461009657806334f50ef0146100b8578063715018a6146100cb5780637fd6f15c146100e057806384276d811461011e575b600080fd5b3480156100a257600080fd5b506100b66100b1366004610a6c565b6101f0565b005b6100b66100c6366004610a96565b61032b565b3480156100d757600080fd5b506100b661057c565b3480156100ec57600080fd5b5060015461010490600160a01b900463ffffffff1681565b60405163ffffffff90911681526020015b60405180910390f35b34801561012a57600080fd5b506100b6610139366004610ab8565b610590565b34801561014a57600080fd5b506000546001600160a01b03165b6040516001600160a01b039091168152602001610115565b34801561017c57600080fd5b506100b661018b366004610ad1565b610619565b34801561019c57600080fd5b50600154610158906001600160a01b031681565b3480156101bc57600080fd5b506100b66101cb366004610af7565b61068e565b3480156101dc57600080fd5b506100b66101eb366004610a96565b610995565b6101f86109d3565b6040516370a0823160e01b815230600482015281906001600160a01b038416906370a0823190602401602060405180830381865afa15801561023e573d6000803e3d6000fd5b505050506040513d601f19601f820116820180604052508101906102629190610b33565b10156102b55760405162461bcd60e51b815260206004820152601a60248201527f496e73756666696369656e7420746f6b656e2062616c616e636500000000000060448201526064015b60405180910390fd5b60405163a9059cbb60e01b8152336004820152602481018290526001600160a01b0383169063a9059cbb906044016020604051808303816000875af1158015610302573d6000803e3d6000fd5b505050506040513d601f19601f820116820180604052508101906103269190610b4c565b505050565b6000341161037b5760405162461bcd60e51b815260206004820152601d60248201527f416d6f756e74206d7573742062652067726561746572207468616e203000000060448201526064016102ac565b60015434906000906127109061039e90600160a01b900463ffffffff1684610b84565b6103a89190610ba1565b905060006103b68284610bc3565b6040516370a0823160e01b815230600482015290915081906001600160a01b038616906370a0823190602401602060405180830381865afa1580156103ff573d6000803e3d6000fd5b505050506040513d601f19601f820116820180604052508101906104239190610b33565b10156104715760405162461bcd60e51b815260206004820152601b60248201527f496e73756666696369656e7420746f6b656e20666f722073776170000000000060448201526064016102ac565b81156104b3576001546040516001600160a01b039091169083156108fc029084906000818181858888f193505050501580156104b1573d6000803e3d6000fd5b505b60405163a9059cbb60e01b8152336004820152602481018290526001600160a01b0385169063a9059cbb906044016020604051808303816000875af1158015610500573d6000803e3d6000fd5b505050506040513d601f19601f820116820180604052508101906105249190610b4c565b5060408051848152602081018390529081018390526001600160a01b0385169060009033907f78144de69c30989060d6bc0b4e6da9a31b6497866db952e683d0221e9cd201659060600160405180910390a450505050565b6105846109d3565b61058e6000610a00565b565b6105986109d3565b804710156105e85760405162461bcd60e51b815260206004820152601860248201527f496e73756666696369656e74204554482062616c616e6365000000000000000060448201526064016102ac565b604051339082156108fc029083906000818181858888f19350505050158015610615573d6000803e3d6000fd5b5050565b6106216109d3565b6127108163ffffffff1611156106685760405162461bcd60e51b815260206004820152600c60248201526b08ccaca40e8dede40d0d2ced60a31b60448201526064016102ac565b6001805463ffffffff909216600160a01b0263ffffffff60a01b19909216919091179055565b600081116106de5760405162461bcd60e51b815260206004820152601f60248201527f416d6f756e74496e206d7573742062652067726561746572207468616e20300060448201526064016102ac565b600154600090612710906106ff90600160a01b900463ffffffff1684610b84565b6107099190610ba1565b905060006107178284610bc3565b6040516370a0823160e01b815230600482015290915081906001600160a01b038616906370a0823190602401602060405180830381865afa158015610760573d6000803e3d6000fd5b505050506040513d601f19601f820116820180604052508101906107849190610b33565b10156107d25760405162461bcd60e51b815260206004820152601c60248201527f496e73756666696369656e7420746f6b656e4220666f7220737761700000000060448201526064016102ac565b6040516323b872dd60e01b8152336004820152306024820152604481018490526001600160a01b038616906323b872dd906064016020604051808303816000875af1158015610825573d6000803e3d6000fd5b505050506040513d601f19601f820116820180604052508101906108499190610b4c565b5081156108c95760015460405163a9059cbb60e01b81526001600160a01b039182166004820152602481018490529086169063a9059cbb906044016020604051808303816000875af11580156108a3573d6000803e3d6000fd5b505050506040513d601f19601f820116820180604052508101906108c79190610b4c565b505b60405163a9059cbb60e01b8152336004820152602481018290526001600160a01b0385169063a9059cbb906044016020604051808303816000875af1158015610916573d6000803e3d6000fd5b505050506040513d601f19601f8201168201806040525081019061093a9190610b4c565b5060408051848152602081018390529081018390526001600160a01b03808616919087169033907f78144de69c30989060d6bc0b4e6da9a31b6497866db952e683d0221e9cd201659060600160405180910390a45050505050565b61099d6109d3565b6001600160a01b0381166109c757604051631e4fbdf760e01b8152600060048201526024016102ac565b6109d081610a00565b50565b6000546001600160a01b0316331461058e5760405163118cdaa760e01b81523360048201526024016102ac565b600080546001600160a01b038381166001600160a01b0319831681178455604051919092169283917f8be0079c531659141344cd1fd0a4f28419497f9722a3daafe3b4186f6b6457e09190a35050565b80356001600160a01b0381168114610a6757600080fd5b919050565b60008060408385031215610a7f57600080fd5b610a8883610a50565b946020939093013593505050565b600060208284031215610aa857600080fd5b610ab182610a50565b9392505050565b600060208284031215610aca57600080fd5b5035919050565b600060208284031215610ae357600080fd5b813563ffffffff81168114610ab157600080fd5b600080600060608486031215610b0c57600080fd5b610b1584610a50565b9250610b2360208501610a50565b9150604084013590509250925092565b600060208284031215610b4557600080fd5b5051919050565b600060208284031215610b5e57600080fd5b81518015158114610ab157600080fd5b634e487b7160e01b600052601160045260246000fd5b8082028115828204841417610b9b57610b9b610b6e565b92915050565b600082610bbe57634e487b7160e01b600052601260045260246000fd5b500490565b81810381811115610b9b57610b9b610b6e56fea264697066735822122013bcf7930549bc757ecdcf14284a1dbb0d508692c848b45151a2383aed0887dc64736f6c63430008180033",
  "linkReferences": {},
  "deployedLinkReferences": {}
}